:020000040800F2
:1000000000040020DB010008E9010008EB01000802
:10001000ED010008EF010008F101000800000000F8
:10002000000000000000000000000000F3010008D4
:10003000F501000800000000F7010008F9010008C0
:10004000FB010008FB010008FB010008FB010008A0
:10005000FB010008FB010008FB010008FB01000890
:10006000FB010008FB010008FB010008FB01000880
:10007000FB010008FB010008FB010008FB01000870
:10008000FB010008FB010008FB010008FB01000860
:10009000FB010008FB010008FB010008FB01000850
:1000A000FB010008FB010008FB010008FB01000840
:1000B000FB010008FB010008FB010008FB01000830
:1000C000FB010008FB010008FB010008FB01000820
:1000D000FB010008DF060008FB010008FB01000827
:1000E000FB010008FB010008FB010008FB01000800
:1000F000FB010008FB010008FB010008FB010008F0
:10010000FB010008FB010008FB010008FB010008DF
:10011000FB010008FB010008FB010008FB010008CF
:10012000FB010008FB010008FB010008FB010008BF
:1001300000F002F800F03AF80AA090E8000C8244BF
:100140008344AAF10107DA4501D100F02FF8AFF29C
:10015000090EBAE80F0013F0010F18BFFB1A43F0A5
:1001600001031847600D0000800D0000103A24BF05
:1001700078C878C1FAD8520724BF30C830C144BF0C
:1001800004680C607047000000230024002500264E
:10019000103A28BF78C1FBD8520728BF30C148BFEA
:1001A0000B6070471FB51FBD10B510BD00F0A2FB5E
:1001B0001146FFF7F7FF00F033F800F0D4FB03B46B
:1001C000FFF7F2FF03BC00F07BFA000030BF72B60D
:1001D00062B680F30888704770470B4880470B4928
:1001E00081F308880A480047FEE7FEE7FEE7FEE7DE
:1001F000FEE7FEE7FEE7FEE7FEE7FEE70548064905
:10020000044A064B70470000D90100083809002055
:100210003101000838010020380900203801002091
:100220000026092000F0F0F94FF41651482000F0A4
:1002300091FA482000F090F800F004FB57E02C48B9
:10024000008800F4004000282BD029480088C0F323
:100250000D0728A000F010FB002406E02B48055DE8
:10026000005D2B490880601C84B2BC42F6DBA5F11E
:10027000300085B24FF6FF7000EA0535E84385B2DD
:100280002448056000BF2248001F008800F040009D
:100290000028F8D020A000F0EFFA002014490880D0
:1002A00025E0701C86B241F2883096FBF0F100FB2D
:1002B000116010B91AA000F0DFFAC82096FBF0F127
:1002C00000FB116010B91CA000F0D6FA1E2096FBAE
:1002D000F0F100FB116038B91E48006808B9012030
:1002E00000E000201B4908600A2000F06DF8A6E736
:1002F000080000200D0AC4FACAE4C8EBB5C4CAFD60
:10030000D7D6CAC73A0D0A0D0A0000000C0000201B
:10031000043801400C1801400D0A0D0A00000000CD
:100320000D0A53544D3332BACBD0C4B0E5B4AEBF8E
:10033000DACAB5D1E90D0A00C7EBCAE4C8EBCAFDB9
:10034000BEDD2CD2D4BBD8B3B5BCFCBDE1CAF80D20
:100350000A000000800123424FF0E021096921F0EA
:1003600004014FF0E0221161C21700EB5272C2F398
:10037000C702234B1A701946097801EB4102C2EB00
:10038000C1114FF6FF7202EAC1011E4A1180704787
:1003900001461B4A12784A434FF0E0235A6100227B
:1003A0009A6101221A6100BF4FF0E022106900F04B
:1003B00001021AB100F48032002AF5D000224FF079
:1003C000E0231A619A61704701460E4A12884A4337
:1003D0004FF0E0235A6100229A6101221A6100BFA6
:1003E0004FF0E022106900F001021AB100F48032EF
:1003F000002AF5D000224FF0E0231A619A6170477D
:100400000000002002000020A14A0A400243A14B44
:100410001A6070470146072323EA010212029D4B2E
:100420001B1D18684FF6FF0318409B4B18431043E1
:10043000984B1B1D186070472DE9F0410746884610
:1004400014461D462846FFF7E5FFC5F1040007FAEC
:1004500000F60F20284100EA0800064306F00F06C8
:10046000202C09DA8D4800680121A14008434FF093
:10047000E021C1F800010BE08848001D0068A4F1EC
:10048000200101228A4010434FF0E021C1F804010D
:100490008348005D40EA0610C1B281480155BDE8BD
:1004A000F08170B504460B46CE1701EB9676C6F385
:1004B0008700CE1701EB9676B610A1EB8606B6063E
:1004C000350E784B9B6943F00103764EB3614FEADA
:1004D000B63353F820300F26AE40B343724E46F881
:1004E0002030334653F8203004FA05F61E436E4B95
:1004F00043F820606D4B1B6801268E4033436B4EE2
:10050000336002F0010343B1684B0C331B680126D2
:100510008E403343654E0C36336002F0020343B124
:10052000624B08331E6801238B401E435F4B083328
:100530001E6070BD00B500205A490861C8601420D3
:10054000486100208861C8610846006840F00100E9
:1005500008600846406856490840524948600846C5
:100560000068544908404F4908600846006820F474
:10057000802008600846406820F4FE0048600020A3
:10058000886000214FF00060FFF73EFF00BD10B50E
:1005900040480830006840F004003E4908310860D7
:1005A0004048C06940F080503E49C86142484068B8
:1005B00040F48070404948600846006840F00400FC
:1005C00008600846006840F002000860FFF7FEFD82
:1005D00010BD3148001D2F49091D086070470146B4
:1005E0004906304A926942F001022E4B9A612E4A26
:1005F000083A526822F0E0622B4B083B5A601A46D8
:1006000052680A435A60704730B504460025FFF728
:1006100091FF2448006840F480302249086000BF00
:1006200020480068400C0028FAD04FF480601D4933
:100630004860A01EC4B20846406840EA8440486052
:100640000846406840F4803048601C48006840F02C
:1006500032001A4908601348006840F08070114960
:10066000086000BF0F480068400E0028FAD00D480F
:10067000406840F002000B49486005E009484068C6
:10068000C0F3870505F00305022DF7D130BD00004A
:1006900080FFFF1F08ED00E00000FA0500E100E028
:1006A00000E400E0001002400800014000040140A6
:1006B0000000FFF8FFFFF6FE00700040002002403F
:1006C000014600BF704700BF584A128802F040023E
:1006D000002AF9D0C2B2554B1B1D1A8070475349EE
:1006E000098801F0200111B35049091D0988C8B2D9
:1006F0004F49098801F40041C9B94D49098801F4FD
:10070000804161B10A2803D00021494A118020E0CC
:100710004749098841F40041454A118019E00D28F4
:1007200006D14349098841F48041414A118010E0D3
:100730003F490988C1F30D013E4A50543C4909889C
:10074000491C3B4A118011460988C72901DD002157
:10075000118070472DE9F05F05460E46300100F02C
:1007600051FA8146344905FB01F000F04BFA82460C
:10077000494600F065F90746384600F023FA84B28E
:10078000204600F03FFA8346394600F01BFB8246C4
:100790004FF0834100F04AFA814600F013FA804698
:1007A0004FF6FF7000EA041404EB080084B22348FB
:1007B000806940F00400214988610846806940F45E
:1007C000804088611E48006820F47F601C490860F2
:1007D0000846006840F40B6008601848C06840F4A0
:1007E00080401649C8600846C06820F48040C86050
:1007F0000E4808300480001D008842F20C010843B6
:100800000A490C3108800846008840F4807008804E
:100810000846008840F0200008800223252203219A
:100820000846FFF709FEBDE8F09F000000380140D0
:10083000080000200C00002040420F000010024081
:10084000040801400848806940F04000064988617A
:100850000648006880B205490860084600680449F7
:100860000843024908607047001002400418014024
:1008700000003333704700000FB4044910B503AAD9
:10088000029800F009F810BC5DF814FB0400002089
:100890007047704770477047074B70B50D467B44F3
:1008A00000F011F80446284600F020F810B14FF08F
:1008B000FF3070BD204670BD25FEFFFF01694A1C58
:1008C00002610878704700B58FB0CDE90131002191
:1008D000059105497944CDE903101146684600F0B9
:1008E0002EF80FB000BD0000E5FFFFFF007B00F019
:1008F00080007047754600F03DF8AE460500694639
:10090000534620F00700854618B020B5FFF776FC67
:10091000BDE820404FF000064FF000074FF0000800
:100920004FF0000B21F00701AC46ACE8C009ACE881
:10093000C009ACE8C009ACE8C0098D4670472DE994
:10094000F04106460024D6E90170F568804630463D
:1009500003E04146B847641C3046A8470028F8D158
:100960002046BDE8F0810446AFF300802046FFF743
:1009700026FC000000487047D400002090EA010FD8
:1009800048BF81F0004100F12E82421A3CBF801A1C
:1009900089184FEAD0524FF07F4C1CEA410FA2EB6E
:1009A000D15318BF9CEA026F00F03B804FF0004C1F
:1009B0004CEA00204CEA012121FA03FC10EB0C0C5C
:1009C0001ED202F1FF325FEA1C2040EBC25038BF5A
:1009D00070471CF07F0F4FEA400C18BFBCF17F4FEF
:1009E00038BF7047C3F12003994008BF20F00100D1
:1009F000BCF17F4F38BF7047A0F1C04000F0DDB9B7
:100A00004FEA3C00000A40EBC25028BF1CF0FF0F29
:100A10004FEA400CE6D018BFBCF17F4F38BF70479B
:100A2000EAE79CEA026F05D010EA5C0F08BF00F00D
:100A30000040704710B500F07AF900BF64FBBE3E7D
:100A40004FF47F0C1CEAD0121EBF1CEAD11392EAAD
:100A50000C0F93EA0C0F00F0858090EA010F48BF5D
:100A600042F4807240F4000C41F400002CF07F410D
:100A700020F07F4000B58142A2EB03020FF2081C78
:100A8000ACEB504EC0F100009EF800E04FEA4E0E75
:100A900000FB0EFC38BF49004FEA2C1C02F5FA029D
:100AA0000CFB0EF34FEACE1E4FEA112C4FEAC12188
:100AB0000EEB635E42EB22420EFB0CFC4FEA1C5332
:100AC00000FB03114FEA112C4FEA01310EFB0CFC25
:100AD0004FEADC4C00FB0C11C14228BF09184CEB5B
:100AE00003335DF804EB10EB410143EBC250B2F568
:100AF0007C0F38BF704729D512F0F00F1CBF00F1F2
:100B0000C04000F000407047008182838485868762
:100B100088898B8C8D8E8F919293959697999A9CBC
:100B20009D9FA0A2A3A5A7A8AAACAEB0B2B3B5B72B
:100B3000B9BCBEC0C2C5C7C9CCCED1D4D7D9DCDF01
:100B4000E2E6E9ECF0F3F7FAFE0000004FEA400CB1
:100B50000CF1807CBCF17E4F28BF7047B0F1C040E3
:100B600000F02BB990EA010F0CEAD11348BF42F410
:100B70008072624538BF634507D213F47F0F16D0E9
:100B800080EA010000F00040704710B500F0CFF897
:100B9000097EFC3E00F005B880EA010000F000404C
:100BA000704780EA010000F0004000F006B912F43E
:100BB0007F0F04BF0248704780EA010000F0FDB8D3
:100BC0000000C07FC10DD1F19E0206DB4FEA002379
:100BD00043F0004323FA02F07047004207D54FEA82
:100BE0004001B1F1FE4F02D24FF00000704710B546
:100BF00000F09DF849922480002070476FEA2000A1
:100C000070470000B0FA80F310FA03F2C3F19D03BD
:100C10000AD0D90501EB1220530638BF704700F106
:100C2000010008BF20F00100704700004FF47F0C66
:100C30001CEAD0121EBF1CEAD11392EA0C0F93EAF1
:100C40000C0F00F0478090EA010F48BF42F4807219
:100C50004FF0004C4CEA00204CEA012102EB030269
:100C6000A0FB0113A2F50002002918BF43F0010305
:100C70005B0028BF4FEA330342EB22425FEA132CAA
:100C80004CEBC2502EBFBCEB436FB2F57C0F7047EC
:100C90004FEA036CBCF1004F08BF20F00100B2F531
:100CA0007C0F38BF70470BD582F0FF0212F5803FF2
:100CB000C8BF704700F1C040D8BF00F00040704787
:100CC00000F5000C5FEA4C0C48BF7047B0F1C04023
:100CD00000F073B890EA010F0CEAD11348BF42F458
:100CE0008072624538BF634504D280EA010000F09B
:100CF0000040704710B500F01AF800BF8900013EAF
:100D000000F007B800F009B85FEA410C5FEA1C6C1C
:100D100008D080EA010000F050B85FEA400C5FEABA
:100D20001C6CF6D14FF00040A0F5800070470EF12A
:100D3000020E2EF0030E5EF8044B244204D44FEA58
:100D40004102B2F17F4F11D84FEA4003B3F17F4F18
:100D50000CD80ED14FEAD07CB2F17F4F0CEB4C0C8B
:100D60000CF1020C08BF4CEBD17C04E04FF0080CF6
:100D700001E04FEAD17C0CEB4C0324FA03F404F0BD
:100D80000704B4F1040C06D20EEB840CBDE810404D
:100D90004CF0010C6047DFE80CF0070802024FF04E
:100DA0000040A0F5800010BD0846420018BFD2F1F7
:100DB000807288BF00F0004010BDFF2141EAD05092
:100DC000C005704780F0004090EA010F7FF5DDAD6F
:100DD00081F0004100F007B890EA010F48BF81F0B0
:100DE00000413FF5D2AD421A04D882F00042A0EB98
:100DF000020011444FEAD0524FF07F4C1CEA410FE1
:100E0000A2EBD15318BF9CEA026F4AD04FF0004CBE
:100E10004CEA00204CEA012121FA03FCB0EB0C0C57
:100E20000FD412F0FE0F36D05FEA4C001DD5001231
:100E300040EBC25038BF70471CF03F0F18BF7047DF
:100E40000BE0A2F101025FEA1C2040EBC25038BF68
:100E500070471CF07F0F18BF7047C3F12003994003
:100E600014BF401E20F00100704780084FEA122393
:100E700008BF7047B0FA80FCA2EB0C02CCF1280C42
:100E800060FA0CF093EA122F04BF00EBC2507047D7
:100E90004FEAC3707047130A5FEADC1008BF70475F
:100EA000F6E79CEA026F04D010EA5C0F08BF00204E
:100EB000704710B5FFF73BFF40DFF63E81F0004082
:100EC00070470000E40E0008000000200C00000045
:100ED0006C010008F00E00080C0000202C09000036
:100EE0008801000800000000000000000000000071
:0400000508000131BD
:00000001FF
